{
  "_format": "hh-sol-artifact-1",
  "contractName": "Janken",
  "sourceName": "contracts/Janken.sol",
  "abi": [
    {
      "inputs": [],
      "name": "InvalidInitialization",
      "type": "error"
    },
    {
      "inputs": [],
      "name": "NotInitializing",
      "type": "error"
    },
    {
      "inputs": [
        {
          "internalType": "address",
          "name": "owner",
          "type": "address"
        }
      ],
      "name": "OwnableInvalidOwner",
      "type": "error"
    },
    {
      "inputs": [
        {
          "internalType": "address",
          "name": "account",
          "type": "address"
        }
      ],
      "name": "OwnableUnauthorizedAccount",
      "type": "error"
    },
    {
      "inputs": [],
      "name": "ReentrancyGuardReentrantCall",
      "type": "error"
    },
    {
      "anonymous": false,
      "inputs": [
        {
          "indexed": false,
          "internalType": "uint256",
          "name": "oldFee",
          "type": "uint256"
        },
        {
          "indexed": false,
          "internalType": "uint256",
          "name": "newFee",
          "type": "uint256"
        }
      ],
      "name": "FeeUpdated",
      "type": "event"
    },
    {
      "anonymous": false,
      "inputs": [
        {
          "indexed": true,
          "internalType": "address",
          "name": "owner",
          "type": "address"
        },
        {
          "indexed": false,
          "internalType": "uint256",
          "name": "amount",
          "type": "uint256"
        }
      ],
      "name": "FeesWithdrawn",
      "type": "event"
    },
    {
      "anonymous": false,
      "inputs": [
        {
          "indexed": true,
          "internalType": "uint256",
          "name": "gameId",
          "type": "uint256"
        },
        {
          "indexed": true,
          "internalType": "address",
          "name": "challenger",
          "type": "address"
        },
        {
          "indexed": true,
          "internalType": "address",
          "name": "challenged",
          "type": "address"
        },
        {
          "indexed": false,
          "internalType": "enum JankenStorage.Result",
          "name": "result",
          "type": "uint8"
        }
      ],
      "name": "GameFinished",
      "type": "event"
    },
    {
      "anonymous": false,
      "inputs": [
        {
          "indexed": true,
          "internalType": "uint256",
          "name": "gameId",
          "type": "uint256"
        },
        {
          "indexed": true,
          "internalType": "address",
          "name": "challenger",
          "type": "address"
        },
        {
          "indexed": true,
          "internalType": "address",
          "name": "challenged",
          "type": "address"
        },
        {
          "indexed": false,
          "internalType": "uint256",
          "name": "revealDeadline",
          "type": "uint256"
        },
        {
          "indexed": false,
          "internalType": "address",
          "name": "challengedErc20Token",
          "type": "address"
        },
        {
          "indexed": false,
          "internalType": "uint256",
          "name": "challengedErc20Pledge",
          "type": "uint256"
        }
      ],
      "name": "GameOn",
      "type": "event"
    },
    {
      "anonymous": false,
      "inputs": [
        {
          "indexed": true,
          "internalType": "uint256",
          "name": "gameId",
          "type": "uint256"
        },
        {
          "indexed": true,
          "internalType": "address",
          "name": "challenger",
          "type": "address"
        },
        {
          "indexed": true,
          "internalType": "address",
          "name": "challenged",
          "type": "address"
        },
        {
          "indexed": false,
          "internalType": "uint256",
          "name": "commitDeadline",
          "type": "uint256"
        },
        {
          "indexed": false,
          "internalType": "address",
          "name": "challengerErc20Token",
          "type": "address"
        },
        {
          "indexed": false,
          "internalType": "uint256",
          "name": "challengerErc20Pledge",
          "type": "uint256"
        }
      ],
      "name": "GameStarted",
      "type": "event"
    },
    {
      "anonymous": false,
      "inputs": [
        {
          "indexed": false,
          "internalType": "uint64",
          "name": "version",
          "type": "uint64"
        }
      ],
      "name": "Initialized",
      "type": "event"
    },
    {
      "anonymous": false,
      "inputs": [
        {
          "indexed": true,
          "internalType": "address",
          "name": "previousOwner",
          "type": "address"
        },
        {
          "indexed": true,
          "internalType": "address",
          "name": "newOwner",
          "type": "address"
        }
      ],
      "name": "OwnershipTransferred",
      "type": "event"
    },
    {
      "inputs": [
        {
          "internalType": "address",
          "name": "challengedPlayer",
          "type": "address"
        },
        {
          "internalType": "bool",
          "name": "giveUp",
          "type": "bool"
        }
      ],
      "name": "callChallengedChicken",
      "outputs": [
        {
          "internalType": "bool",
          "name": "",
          "type": "bool"
        }
      ],
      "stateMutability": "payable",
      "type": "function"
    },
    {
      "inputs": [
        {
          "internalType": "address",
          "name": "challenger",
          "type": "address"
        },
        {
          "internalType": "bool",
          "name": "giveUp",
          "type": "bool"
        }
      ],
      "name": "callChallengerChicken",
      "outputs": [
        {
          "internalType": "bool",
          "name": "",
          "type": "bool"
        }
      ],
      "stateMutability": "payable",
      "type": "function"
    },
    {
      "inputs": [
        {
          "internalType": "address",
          "name": "challengedPlayer",
          "type": "address"
        },
        {
          "internalType": "bytes32",
          "name": "commitment",
          "type": "bytes32"
        },
        {
          "internalType": "address",
          "name": "erc20",
          "type": "address"
        },
        {
          "internalType": "uint256",
          "name": "pledge",
          "type": "uint256"
        }
      ],
      "name": "challenge",
      "outputs": [],
      "stateMutability": "payable",
      "type": "function"
    },
    {
      "inputs": [],
      "name": "currentFee",
      "outputs": [
        {
          "internalType": "uint256",
          "name": "",
          "type": "uint256"
        }
      ],
      "stateMutability": "view",
      "type": "function"
    },
    {
      "inputs": [
        {
          "internalType": "uint256",
          "name": "fee",
          "type": "uint256"
        }
      ],
      "name": "initialize",
      "outputs": [],
      "stateMutability": "nonpayable",
      "type": "function"
    },
    {
      "inputs": [],
      "name": "owner",
      "outputs": [
        {
          "internalType": "address",
          "name": "",
          "type": "address"
        }
      ],
      "stateMutability": "view",
      "type": "function"
    },
    {
      "inputs": [
        {
          "internalType": "address",
          "name": "challenger",
          "type": "address"
        },
        {
          "internalType": "enum JankenStorage.Move",
          "name": "move",
          "type": "uint8"
        },
        {
          "internalType": "address",
          "name": "erc20",
          "type": "address"
        },
        {
          "internalType": "uint256",
          "name": "pledge",
          "type": "uint256"
        },
        {
          "internalType": "bool",
          "name": "giveUp",
          "type": "bool"
        }
      ],
      "name": "play",
      "outputs": [],
      "stateMutability": "payable",
      "type": "function"
    },
    {
      "inputs": [
        {
          "internalType": "address",
          "name": "player",
          "type": "address"
        }
      ],
      "name": "playerStats",
      "outputs": [
        {
          "internalType": "uint256",
          "name": "wins",
          "type": "uint256"
        },
        {
          "internalType": "uint256",
          "name": "losses",
          "type": "uint256"
        },
        {
          "internalType": "uint256",
          "name": "draws",
          "type": "uint256"
        },
        {
          "internalType": "uint256",
          "name": "chickenOuts",
          "type": "uint256"
        }
      ],
      "stateMutability": "view",
      "type": "function"
    },
    {
      "inputs": [],
      "name": "renounceOwnership",
      "outputs": [],
      "stateMutability": "nonpayable",
      "type": "function"
    },
    {
      "inputs": [
        {
          "internalType": "address",
          "name": "challengedPlayer",
          "type": "address"
        },
        {
          "internalType": "string",
          "name": "secret",
          "type": "string"
        },
        {
          "internalType": "enum JankenStorage.Move",
          "name": "move",
          "type": "uint8"
        },
        {
          "internalType": "bool",
          "name": "giveUp",
          "type": "bool"
        }
      ],
      "name": "reveal",
      "outputs": [],
      "stateMutability": "payable",
      "type": "function"
    },
    {
      "inputs": [
        {
          "internalType": "address",
          "name": "newOwner",
          "type": "address"
        }
      ],
      "name": "transferOwnership",
      "outputs": [],
      "stateMutability": "nonpayable",
      "type": "function"
    },
    {
      "inputs": [
        {
          "internalType": "uint256",
          "name": "newFee",
          "type": "uint256"
        }
      ],
      "name": "updateFee",
      "outputs": [],
      "stateMutability": "nonpayable",
      "type": "function"
    },
    {
      "inputs": [
        {
          "internalType": "bytes32",
          "name": "_commitment",
          "type": "bytes32"
        },
        {
          "internalType": "string",
          "name": "_secret",
          "type": "string"
        },
        {
          "internalType": "enum JankenStorage.Move",
          "name": "_move",
          "type": "uint8"
        }
      ],
      "name": "verifyCommitment",
      "outputs": [
        {
          "internalType": "bool",
          "name": "",
          "type": "bool"
        }
      ],
      "stateMutability": "pure",
      "type": "function"
    },
    {
      "inputs": [],
      "name": "withdrawFees",
      "outputs": [
        {
          "internalType": "uint256",
          "name": "",
          "type": "uint256"
        }
      ],
      "stateMutability": "nonpayable",
      "type": "function"
    }
  ],
  "bytecode": "0x6080806040523461001657611aaf908161001c8239f35b600080fdfe6040608081526004908136101561001557600080fd5b600091823560e01c806303e9023114610b2657806312a629ea14610a6e578063319f6b3f146107395783816334e15c241461065d57508063476343ee14610584578063715018a61461051a5780638da5cb5b146104e45780639012c4a81461047e578063c0a4cc59146103ec578063cdafbbb61461039d578063da3c300d14610371578063e72a164214610282578063f2fde38b146102525763fe4b84df146100bd57600080fd5b3461024e57602036600319011261024e578035907ff0c57e16840df040f15088dc2f81fe391c3923bec73e23a9662efc9c229c6a0091825460ff81861c16159267ffffffffffffffff821680159081610246575b600114908161023c575b159081610233575b50610225575067ffffffffffffffff19811660011784557f528d9479e9f9889a87a3c30c7f7ba537e5e59c4c85a37733b16e57c62df6130291859184610206575b5061016d611998565b610175611998565b61017d611998565b61018633611435565b61018e611998565b610196611998565b6001600080516020611a3a833981519152556101b181611722565b8151908782526020820152a16101c5578280f35b805468ff00000000000000001916905551600181527fc7f505b2f371ae2175ee4913f4499e1f2633a7b5936321eed1cdaeb6115181d290602090a138808280f35b68ffffffffffffffffff19166801000000000000000117855538610164565b855163f92ee8a960e01b8152fd5b90501538610123565b303b15915061011b565b859150610111565b8280fd5b833461027f57602036600319011261027f5761027c61026f610bb1565b6102776116e9565b611435565b80f35b80fd5b50508060031936011261036d57610297610bb1565b9061030d6102a3610bdd565b6000805160206119da833981519152936102c08554341015610bec565b6102c86114ed565b6102d181610c65565b338752602052838620906102ea60018301541515610cc5565b610306600160ff60028501541661030081610d07565b14610d27565b33916115fc565b916001600080516020611a3a8339815191525554803411610335575b60208383519015158152f35b838080610343819434610c42565b818115610364575b3390f1156103595782610329565b51913d9150823e3d90fd5b506108fc61034b565b5080fd5b50503461036d578160031936011261036d576020906000805160206119da833981519152549051908152f35b50503461036d57602036600319011261036d576080906103c36103be610bb1565b610c8c565b908154916001810154916003600283015492015492815194855260208501528301526060820152f35b50508060031936011261036d57610401610bb1565b9061030d61040d610bdd565b6000805160206119da8339815191529361042a8554341015610bec565b6104326114ed565b61043b33610c65565b6001600160a01b0382168752602052838620600181015461045d901515610cc5565b61047760ff60028301541661047181610d07565b15610d27565b339061151d565b50903461024e57602036600319011261024e577f528d9479e9f9889a87a3c30c7f7ba537e5e59c4c85a37733b16e57c62df6130291356104bc6116e9565b6000805160206119da83398151915254906104d681611722565b82519182526020820152a180f35b50503461036d578160031936011261036d57600080516020611a1a8339815191525490516001600160a01b039091168152602090f35b833461027f578060031936011261027f576105336116e9565b600080516020611a1a83398151915280546001600160a01b0319811690915581906001600160a01b03167f8be0079c531659141344cd1fd0a4f28419497f9722a3daafe3b4186f6b6457e08280a380f35b50903461024e578260031936011261024e5761059e6116e9565b6105a66114ed565b47918215610625575060018060a01b03600080516020611a1a83398151915284808080878686541682f11561061b576020945054167fc0819c13be868895eb93e40eaceb96de976442fa1d404e5c55f14bb65a8c489a848351858152a26001600080516020611a3a8339815191525551908152f35b82513d86823e3d90fd5b6020606492519162461bcd60e51b835282015260136024820152724e6f206665657320746f20776974686472617760681b6044820152fd5b919050608036600319011261036d57610674610bb1565b906024359067ffffffffffffffff82116107355761069491369101610b7e565b60443560038110156107315760643591821515830361072d576106db936000805160206119da833981519152956106ce8754341015610bec565b6106d66114ed565b611075565b6001600080516020611a3a83398151915255548034116106f9575080f35b8180610706819334610c42565b818115610724575b3390f11561071a578180f35b51903d90823e3d90fd5b506108fc61070e565b8580fd5b8480fd5b8380fd5b509190608036600319011261036d57610750610bb1565b6024359361075c610bc7565b6064356000805160206119da8339815191529361077c8554341015610bec565b6001600160a01b0381811694909290338614610a2b5785156109e85789156109a5576107c86107aa33610c65565b93878b5260209485526107c360018b8d20015415611024565b610c65565b338a5283526107dd6001898b20015415611024565b6107e633610c65565b868a528352878920907fd9f8b2dcd88984b6173e55a1685fe233b5867839ea3da0b5f3f0d47659cbd9169a8b54835560018301556002820160ff19815416815562093a80420195864211610992578b9c6007859d9c9d0197885561084a8154611066565b9055846108a9575b50509054935489519081526001600160a01b039590951660208601525060408401525033917fc0e886666243306bf8e1931c7eb5824c3fa60c1fee8e2beafc6e3f8a61993a5690606090a4548034116106f9575080f35b91859161090a938916906108be821515610d68565b8054610100600160a81b03191660088b901b610100600160a81b0316179055600385018690558c51636eb1769f60e11b8152339281019283523060208401529384928391829160400190565b03915afa938415610988578994610952575b505061094a827fc0e886666243306bf8e1931c7eb5824c3fa60c1fee8e2beafc6e3f8a61993a569414610dec565b388080610852565b90809450813d8311610981575b6109698183610db4565b8101031261097d5791519161094a8261091c565b8780fd5b503d61095f565b8a513d8b823e3d90fd5b634e487b7160e01b8c526011835260248cfd5b606490602089519162461bcd60e51b8352820152601a60248201527f436f6d6d69746d656e742063616e6e6f7420626520656d7074790000000000006044820152fd5b606490602089519162461bcd60e51b8352820152601960248201527f496e76616c6964206368616c6c656e67656420706c61796572000000000000006044820152fd5b606490602089519162461bcd60e51b8352820152601960248201527f43616e6e6f74206368616c6c656e676520796f757273656c66000000000000006044820152fd5b505060a036600319011261036d5781610a85610bb1565b60243590600382101561024e57610a9a610bc7565b9060843590811515820361073157610ada92610ab46114ed565b6000805160206119da83398151915294610ad18654341015610bec565b60643592610e4b565b54803411610af9575b506001600080516020611a3a8339815191525580f35b8180610b06819334610c42565b818115610b1d575b3390f11561071a578181610ae3565b506108fc610b0e565b503461024e57606036600319011261024e5760243567ffffffffffffffff811161073557610b579036908301610b7e565b9160443594600386101561027f57509160209491610b7593356114a9565b90519015158152f35b9181601f84011215610bac5782359167ffffffffffffffff8311610bac5760208381860195010111610bac57565b600080fd5b600435906001600160a01b0382168203610bac57565b604435906001600160a01b0382168203610bac57565b602435908115158203610bac57565b15610bf357565b60405162461bcd60e51b815260206004820152602160248201527f496e73756666696369656e742073657276696365206665652070726f766964656044820152601960fa1b6064820152608490fd5b91908203918211610c4f57565b634e487b7160e01b600052601160045260246000fd5b6001600160a01b03166000908152600080516020611a5a8339815191526020526040902090565b6001600160a01b031660009081527fd9f8b2dcd88984b6173e55a1685fe233b5867839ea3da0b5f3f0d47659cbd9156020526040902090565b15610ccc57565b60405162461bcd60e51b815260206004820152601360248201527211d85b5948191bd95cc81b9bdd08195e1a5cdd606a1b6044820152606490fd5b60031115610d1157565b634e487b7160e01b600052602160045260246000fd5b15610d2e57565b60405162461bcd60e51b8152602060048201526012602482015271496e76616c69642067616d6520737461746560701b6044820152606490fd5b15610d6f57565b60405162461bcd60e51b815260206004820152601b60248201527f496e76616c696420455243323020746f6b656e206164647265737300000000006044820152606490fd5b90601f8019910116810190811067ffffffffffffffff821117610dd657604052565b634e487b7160e01b600052604160045260246000fd5b15610df357565b60405162461bcd60e51b815260206004820152602a60248201527f4e6f7420656e6f75676820616c6c6f77616e636520746f2074686520736d61726044820152691d0818dbdb9d1c9858dd60b21b6064820152608490fd5b939290610e5785610c65565b936000943386526020526040852091610e7560018401541515610cc5565b610e966002840192610e8e60ff85541661047181610d07565b33898661151d565b61101b5760019060068401610eaa82610d07565b60ff199160ff83835416911617905582541617905562093a804201938442116110075784600883015582610f26575b5054604080519485526001600160a01b0393841660208601528401919091523393909116917f6f57242705baf6a3cc9ff9913bae3f4384bb5340f0a1dc5b4e37a8880b11d87b90606090a4565b6001600160a01b038416610f3b811515610d68565b600483810180546001600160a01b0319168317905560058401859055604051636eb1769f60e11b8152339181019190915230602482015290602090829060449082905afa918215610ffb578092610fc4575b505090610fbd837f6f57242705baf6a3cc9ff9913bae3f4384bb5340f0a1dc5b4e37a8880b11d87b949314610dec565b9091610ed9565b9091506020823d602011610ff3575b81610fe060209383610db4565b8101031261027f575051610fbd83610f8d565b3d9150610fd3565b604051903d90823e3d90fd5b634e487b7160e01b81526011600452602490fd5b50505050505050565b1561102b57565b60405162461bcd60e51b815260206004820152601360248201527247616d6520616c72656164792065786973747360681b6044820152606490fd5b6000198114610c4f5760010190565b93929161108133610c65565b9360018060a01b039182871696600093888552602097885260409586862093600198898601926110b384541515610cc5565b60028701936110ca8c60ff87541661030081610d07565b6110d68988338b6115fc565b611425578d936110e8928492546114a9565b15611414575b60ff6006870154169061110081610d07565b61110982610d07565b8181036111dc57505050829054958260048601541692600386015491600587015496549a338252600080516020611a5a8339815191528d528d8b83209083528d52818b812091818355820155816002820155816003820155816004820155816005820155816006820155816007820155600801553361118790610c8c565b600201805461119590611066565b90556111a083610c8c565b60020180546111ae90611066565b9055339760081c169633976111c298611797565b516002815233926000805160206119fa83398151915291a4565b6111ee829b9a999b9897969598610d07565b89821592836113fd575b83156113cd575b8315611398575b5050506000146112d257505493818160048501541691600385015496600586015495549a338152600080516020611a5a8339815191528d528d8a82209082528d52898120818155818c8201558160028201558160038201558160048201558160058201558160068201558160078201556008015561128383610c8c565b805461128e90611066565b90558961129a33610c8c565b0180546112a690611066565b905560081c16958133976112b998611797565b5190815233926000805160206119fa83398151915291a4565b97989594909661138f9493926000805160206119fa83398151915298549183600486015416926003860154918d600588015497549d338252600080516020611a5a8339815191528d528b822091528b528d60088b82208281558284820155826002820155826003820155826004820155826005820155826006820155826007820155015561135f33610c8c565b6113698154611066565b905561137484610c8c565b0161137f8154611066565b90553394339160081c1633611797565b519384523393a4565b6002919293506113a781610d07565b1491826113b9575b5050388981611206565b9091506113c581610d07565b1488386113af565b8093506113da9150610d07565b89808314806113ea575b926111ff565b50506113f581610d07565b8981156113e4565b92505061140981610d07565b8960028214926111f8565b61142087863389611621565b6110ee565b5050505050505050505050505050565b6001600160a01b0390811690811561149057600080516020611a1a83398151915280546001600160a01b031981168417909155167f8be0079c531659141344cd1fd0a4f28419497f9722a3daafe3b4186f6b6457e0600080a3565b604051631e4fbdf760e01b815260006004820152602490fd5b92919060216114e6918360405194859260208401976114c781610d07565b60f81b8852848401378101600083820152036001810184520182610db4565b5190201490565b600080516020611a3a833981519152600281541461150b5760029055565b604051633ee5aeb560e01b8152600490fd5b919092600783015442116115345750505050600090565b6115de9060018060a01b0393600281015495856004830154166003830154956005840154935496838981169960009b8b8d52600080516020611a5a83398151915260205260408d209c8286169d8e8252602052600860408220828155826001820155826002820155826003820155826004820155826005820155826006820155826007820155015560036115c786610c8c565b016115d28154611066565b905560081c1681611797565b6000805160206119fa833981519152602060405160048152a4600190565b929190600884015442116116135750505050600090565b61161c93611621565b600190565b926116ce9060018060a01b0394600281015494866004830154168160038401548160058601549554988b81169b8c9b604060009e8f908152600080516020611a5a833981519152602052209d8285169e8f8252602052600860408220828155826001820155826002820155826003820155826004820155826005820155826006820155826007820155015560036116b784610c8c565b016116c28154611066565b905560081c1690611797565b6000805160206119fa833981519152602060405160038152a4565b600080516020611a1a833981519152546001600160a01b0316330361170a57565b60405163118cdaa760e01b8152336004820152602490fd5b801561173a576000805160206119da83398151915255565b60405162461bcd60e51b815260206004820152601a60248201527f466565206d7573742062652067726561746572207468616e20300000000000006044820152606490fd5b90816020910312610bac57518015158103610bac5790565b919290979396959781151580611990575b6118be575b5050505082151590816118b5575b506117c7575b50505050565b6040516323b872dd60e01b81526001600160a01b0393841660048201529383166024850152604484019190915260209183916064918391600091165af19081156118a95760009161187a575b501561182257388080806117c1565b60405162461bcd60e51b815260206004820152602a60248201527f5472616e73666572206f6620746865206368616c6c656e676564277320706c656044820152691919d94819985a5b195960b21b6064820152608490fd5b61189c915060203d6020116118a2575b6118948183610db4565b81019061177f565b38611813565b503d61188a565b6040513d6000823e3d90fd5b905015386117bb565b6040516323b872dd60e01b81526001600160a01b0393841660048201529383166024850152604484019190915260209183916064918391600091165af19081156118a957600091611971575b501561191957388080806117ad565b60405162461bcd60e51b815260206004820152602a60248201527f5472616e73666572206f6620746865206368616c6c656e676572277320706c656044820152691919d94819985a5b195960b21b6064820152608490fd5b61198a915060203d6020116118a2576118948183610db4565b3861190a565b5084156117a8565b60ff7ff0c57e16840df040f15088dc2f81fe391c3923bec73e23a9662efc9c229c6a005460401c16156119c757565b604051631afcd79f60e31b8152600490fdfe32a2bbb08e7126df56b719a56911515fe4b74c1607c7cc82f8d4f9d1133194422c91057722cb65099f5cbbccb0fec7172eb5f9336a7932baccb5874d4338e28c9016d09d72d40fdae2fd8ceac6b6234c7706214fd39c1cd1e609a0528c1993009b779b17422d0df92223018b32b4d1fa46e071723d6817e2486d003becc55f00d9f8b2dcd88984b6173e55a1685fe233b5867839ea3da0b5f3f0d47659cbd914a2646970667358221220f8619003bc73ff03d7d49541295d90502960e6ed00544ad497ef96bfff09e5c664736f6c63430008180033",
  "linkReferences": {},
  "deployedLinkReferences": {}
}